:100000000C945C000C9484000C9484000C94840088
:100010000C9484000C9484000C9484000C94840050
:100020000C9484000C9484000C9484000C94840040
:100030000C9484000C9484000C9484000C94840030
:100040000C949A080C9484000C941B0B0C94840060
:100050000C9484000C9484000C9484000C94840010
:100060000C9484000C948400000024272A000025AE
:10007000282B000023262904040404040404040299
:100080000202020202030303030303010204081035
:100090002040800102040810200102040810200002
:1000A0000000070002010000030406000000000039
:1000B000000000009A02F20611241FBECFEFD4E028
:1000C000DEBFCDBF12E0A0E0B1E0E2ECFAE102C099
:1000D00005900D92AA3EB107D9F713E0AAEEB2E05F
:1000E00001C01D92A739B107E1F710E0C8EBD0E0DD
:1000F00004C02297FE010E94240DC43BD107C9F71A
:100100000E94EB060C945F0D0C940000AF92BF921E
:10011000CF92DF92EF92FF920F931F93CF93DF93D3
:100120008C01B62E642FFC0183810E940A0A60E0D4
:10013000F80184810E940A0AF80182818823C9F1AA
:1001400068017801C4E0D0E0AB2CBB24B5010C2ED3
:1001500002C0759567950A94E2F76170F701868190
:100160000E940A0A21960894E11CF11CC830D105AE
:1001700069F761E0F80185810E940A0A60E0F801F0
:1001800085810E940A0AC0E0D0E0B5010C2E02C0B1
:10019000759567950A94E2F76170F60186810E9471
:1001A0000A0A21960894C11CD11CC430D10569F7F4
:1001B00018C07801C0E0D0E0CB2CDD24B6010C2EB5
:1001C00002C0759567950A94E2F76170F701868120
:1001D0000E940A0A21960894E11CF11CC830D1053E
:1001E00069F761E0F80185810E940A0A60E0F80180
:1001F00085810E940A0ADF91CF911F910F91FF9094
:10020000EF90DF90CF90BF90AF90089541E00E94B3
:100210008600089540E00E9486000895DF93CF9302
:10022000CDB7DEB728970FB6F894DEBF0FBECDBFAF
:10023000362FFA01AE014F5F5F4F66E071E028E0B4
:10024000DB010D90BD01DA010D92AD012150C1F726
:10025000EE0FFF1FEC0FFD1F6181630F60680E94AE
:100260000A0128960FB6F894DEBF0FBECDBFCF911E
:10027000DF91089562E00E940A0180ED97E00E94FC
:100280002F09089561E00E940A0180ED97E00E9425
:100290002F0908958F929F92AF92CF92EF920F9372
:1002A0004C01862F64E071E0F4017183608391E07A
:1002B00092838383448325830683E782C086A18655
:1002C00061E00E94EC0961E0F40184810E94EC0984
:1002D00061E0F40185810E94EC0961E0F40186810E
:1002E0000E94EC0961E0F40187810E94EC0961E061
:1002F000F40180850E94EC0961E0F40181850E948F
:10030000EC0968E2C4010E940A016CE0C4010E9489
:100310000A0166E0C4010E940A01C4010E94420170
:100320000F91EF90CF90AF909F908F9008958F9204
:100330009F92AF92CF92EF920F934C01862F64E081
:1003400071E0F4017183608391E09283838344833D
:1003500025830683E782C086A18661E00E94EC09BE
:1003600061E0F40184810E94EC0961E0F40185817F
:100370000E94EC0961E0F40186810E94EC0961E0D1
:10038000F40187810E94EC0961E0F40180850E94FC
:10039000EC0961E0F40181850E94EC0968E2C40186
:1003A0000E940A016CE0C4010E940A0166E0C401D7
:1003B0000E940A01C4010E9442010F91EF90CF9068
:1003C000AF909F908F9008956F927F928F92AF928F
:1003D000CF92EF92FF920F931F93DF93CF93CDB7FE
:1003E000DEB73C01862F64E071E0F3017183608326
:1003F00012828383448325830683E782C086A18695
:1004000082869E8593879F8594879889958761E0EA
:100410000E94EC0961E0F30184810E94EC0961E033
:10042000F30185810E94EC09730100E010E061E0B6
:10043000F70186810E94EC090F5F1F4F0894E11CB1
:10044000F11C0830110599F768E3C3010E940A0105
:100450006CE0C3010E940A0166E0C3010E940A0128
:10046000C3010E944201CF91DF911F910F91FF9034
:10047000EF90CF90AF908F907F906F9008956F9294
:100480007F928F92AF92CF92EF92FF920F931F9332
:10049000DF93CF93CDB7DEB73C01862F64E071E0E8
:1004A000F3017183608312828383448325830683EF
:1004B000E782C086A18682869E8593879F859487E2
:1004C0009889958761E00E94EC0961E0F3018481DD
:1004D0000E94EC0961E0F30185810E94EC0973013F
:1004E00000E010E061E0F70186810E94EC090F5FF7
:1004F0001F4F0894E11CF11C0830110599F768E3BF
:10050000C3010E940A016CE0C3010E940A0166E077
:10051000C3010E940A01C3010E944201CF91DF91F1
:100520001F910F91FF90EF90CF90AF908F907F90A1
:100530006F9008958F92AF92CF92EF920F938AE0CF
:100540008F9389E08F9388E08F9337E0832E26E0A6
:10055000A22E95E0C92E84E0E82E03E022E04BE0D5
:100560006CE08EEE92E00E94E4010F900F900F90ED
:100570000F91EF90CF90AF908F9008956F927F92F0
:100580008F929F92AF92BF92CF92DF92EF92FF92A3
:100590000F931F93609000037090010388249924A7
:1005A000A0E0B0E0BF93AF939F938F93AA24BB24A6
:1005B00065014FEFE42E43E0F42E012D112D20E0D4
:1005C00030E040E050E0C401B3010E94580B0F90AE
:1005D0000F900F900F901F910F91FF90EF90DF9071
:1005E000CF90BF90AF909F908F907F906F90089525
:1005F0000F931F93CF93DF9300E110E0C4E1D0E0AD
:1006000000311105D0F440E050E0B8018EEE92E0E8
:100610000E940E016EE071E08EEE92E00E941B07D8
:1006200041E050E0B8018EEE92E00E940E016EE0D3
:1006300071E08EEE92E00E941B0765E070E080E0C2
:1006400090E00E940509C031D105D0F440E050E0AF
:10065000BE018EEE92E00E940E0160E171E08EEE2E
:1006600092E00E941B0741E050E0BE018EEE92E056
:100670000E940E0160E171E08EEE92E00E941B0785
:100680006EE170E080E090E00E94050901501040AA
:1006900021978FEF0B3F180709F0B2CFDF91CF9171
:1006A0001F910F9108950F931F93CF93DF93C0E095
:1006B000D0E0C031D105D0F440E050E0BE018EEE74
:1006C00092E00E940E0162E171E08EEE92E00E94E3
:1006D0001B0741E050E0BE018EEE92E00E940E0149
:1006E00062E171E08EEE92E00E941B0765E070E02F
:1006F00080E090E00E9405098E010450104040E027
:1007000050E0B8018EEE92E00E940E0160E171E0CF
:100710008EEE92E00E941B0741E050E0B8018EEEA1
:1007200092E00E940E0160E171E08EEE92E00E9484
:100730001B076EE170E080E090E00E9405092196C1
:10074000C431D10509F0B5CFDF91CF911F910F9141
:100750000895CF92DF92EF92FF920F931F93CF9362
:10076000DF937C016B01C0E0D0E018C0F701EC0F13
:10077000FD1F6081662369F460E171E08EEE92E016
:100780000E941B072196CE01019780179107A0F3C5
:1007900009C08EEE92E00E94130721968601CC15C7
:1007A000DD0520F362E070E080E090E00E94050942
:1007B000DF91CF911F910F91FF90EF90DF90CF903D
:1007C000089561E08DE00E940A0A81E080930203AF
:1007D000109208031092070389E093E00E94030738
:1007E0008823D1F389E093E00E940007A0910703DA
:1007F000B09108038E37910581F0FD01E15BFE4F5A
:1008000080831196B0930803A093070362E070E021
:1008100080E090E00E940509DFCFA15BBE4F1C92F3
:1008200060E08DE00E940A0A10920203089589E0B8
:1008300093E00E940307882369F0809102038823D4
:1008400049F489E093E00E9400078E35910511F488
:100850000E94E103089580E00E947A099093FD02CE
:100860008093FC0281E00E947A099093FF028093BA
:10087000FE0282E00E947A099093010380930003B4
:1008800008950E94F7086093EA027093EB02809348
:10089000EC029093ED020E942B040E9472050E94CC
:1008A00093060E9417040E94F7089B01AC018091F7
:1008B000EA029091EB02281B390BC9010895CF93EE
:1008C000DF93EC018230910554F40E944104BE0193
:1008D000882777FD8095982F0E9405090FC061E059
:1008E00070E080E090E00E9405090E94410480953C
:1008F0009095C80FD91F1C161D068CF3DF91CF9160
:1009000008952F923F924F925F926F927F928F92B3
:100910009F92AF92BF92CF92DF92EF92FF920F938E
:100920001F93CF93DF9381E080934E0161E08DE0D0
:100930000E940A0A8EEE92E00E94420160E170E09D
:1009400084E191E00E94A903C0E0D0E060E1262E9E
:10095000312C8AC0609100037091010380E090E027
:1009600020E130E040E050E05F934F933F932F93BE
:10097000AA24BB2465015FEFE52E53E0F52E012D7F
:10098000112D20E030E040E050E00E94580B3B0188
:100990004C01609100037091010380E090E024E637
:1009A00030E040E050E05F934F933F932F9320E07F
:1009B00030E040E050E00E94580B84E690E0861B57
:1009C000970B4AE050E0652D742D0E946E0C6BE190
:1009D00071E0852D942D0E94630C582E492E40E025
:1009E00050E067E070E08EEE92E00E940E0164E05D
:1009F00070E0852D942D0E94A9037101E618F70877
:100A000041E050E060E070E08EEE92E00E940E0166
:100A100001E010E04DB75EB7485F5F4F0FB6F89446
:100A20005EBF0FBE4DBFE016F10618F062E171E047
:100A300002C060E171E08EEE92E00E941B070F5F42
:100A40001F4F0131110579F7809100039091010347
:100A5000909306038093050388E290E00E945F0470
:100A6000219602C0C0E0D0E0CA30D10508F472CFB0
:100A700000E010E04091050350910603209100032F
:100A800030910103C90106964817590758F72650B7
:100A900030402417350730F788E290E00E945F0469
:100AA0000F5F1F4F0A30110529F78EEE92E00E946A
:100AB000420110924E0160E08DE00E940A0ADF912F
:100AC000CF911F910F91FF90EF90DF90CF90BF904B
:100AD000AF909F908F907F906F905F904F903F90DE
:100AE0002F90089580914E018823A1F44091050331
:100AF000509106032091000330910103C90106962D
:100B00004817590728F4265030402417350710F0AD
:100B10000E9481040895EF92FF920F931F930EEEAF
:100B200012E040E050E060E070E0C8010E940E0179
:100B300085E090E00E945F047DE1E72E71E0F72EF2
:100B4000B701C8010E941B0780E991E00E94BE0224
:100B5000DC01CB010E945F0441E050E060E070E006
:100B6000C8010E940E0185E090E00E945F04B70179
:100B7000C8010E941B0740E050E060E070E0C8013F
:100B80000E940E0180E090E00E94BE02DC01CB01D9
:100B90000E945F041F910F91FF90EF900895CF92F4
:100BA000DF92EF92FF920F931F93CF93DF936C012D
:100BB0000E948B05E0900703F09008038601C1E0D6
:100BC000D0E049C0C131D105C1F441E050E060E05E
:100BD00070E08EEE92E00E940E0188E592E00E94A5
:100BE000BE02DC01CB010E945F048091070390915B
:100BF0000803E816F906B9F0DBCFC132D10599F444
:100C000088EB9BE00E94BE02DC01CB010E945F04E6
:100C10000E948B058091070390910803E816F9065E
:100C200039F6C1E0D0E0F80161918F018EEE92E0DB
:100C30000E9413078CE390E00E94BE02DC01CB010E
:100C40000E945F048091070390910803E816F9065B
:100C500009F0AECF2196F8018081882309F0B2CF48
:100C600062E070E089E093E00E946208DF91CF913A
:100C70001F910F91FF90EF90DF90CF9008950F9309
:100C80001F93CF93DF938C01FC01ED5FFC4F81E05C
:100C9000808361E08DE00E940A0A0115110519F4B4
:100CA0000E94530302C00E94F8028CE480934F011B
:100CB0008FE68093500181E68093510184E6809312
:100CC000520189E6809353018EE68093540187E6B2
:100CD000809355011092560187E090E090930803AD
:100CE00080930703B80189E093E00E946208E8015D
:100CF000CC0FDD1FC450DD4F04C084E090E00E94A3
:100D00005F0488819981855F9140B8F70D5F1C4F22
:100D1000F801108260E08DE00E940A0ADF91CF9115
:100D20001F910F9108958091FC029091FD02855FC3
:100D3000914040F080910303882321F480E090E00B
:100D40000E943F068091FE029091FF02855F9140D4
:100D500040F080910403882321F481E090E00E9418
:100D60003F0608958EEE92E00E9442018EE291E0ED
:100D70000E94CF0588EB9BE00E945F0408950E94CB
:100D80008B058FE491E00E94CF0588E59BE10E94EE
:100D9000BE02DC01CB010E945F04089540E855E2E9
:100DA00060E070E089E093E00E94060761E08DE07A
:100DB0000E94EC098AE090E00E945F0480910003A9
:100DC0009091010390930603809305030E94B2065D
:100DD00010924E0108950E943D090E94CE060E9485
:100DE000BF06FDCF83EE92E090930A038093090340
:100DF0000895862F0E94DA0A08950E94120B089522
:100E00000E94F30A08950E94E20A0895CB01BA01F4
:100E10000E94A10A0895DC01ED91FC910190F081FE
:100E2000E02D09950895DC01ED91FC910190F08190
:100E3000E02D099508950F931F93CF93DF938C01B5
:100E4000EB0109C02196D801ED91FC910190F08150
:100E5000E02DC801099568816623A1F7DF91CF9144
:100E60001F910F9108950F931F938C01DC01ED9159
:100E7000FC910190F081E02D6DE00995D801ED9194
:100E8000FC910190F081E02D6AE0C80109951F9165
:100E90000F9108950F931F938C01DC01ED91FC914C
:100EA0000190F081E02D0995C8010E9433071F9140
:100EB0000F9108950F931F938C010E941B07C80187
:100EC0000E9433071F910F9108950F931F938C0178
:100ED000DC01ED91FC910190F081E02D0995C801B4
:100EE0000E9433071F910F9108952F923F924F92C6
:100EF0005F926F927F928F929F92AF92BF92CF92AA
:100F0000DF92EF92FF920F931F93DF93CF93CDB7B2
:100F1000DEB7A0970FB6F894DEBF0FBECDBF1C01A1
:100F20006A017B01411551056105710549F4DC0138
:100F3000ED91FC910190F081E02D60E3099554C0A2
:100F4000882499245401422E55246624772401E0F4
:100F500010E00C0F1D1F080D191DC701B601A301DC
:100F600092010E94D10CF80160830894811C911CAD
:100F7000A11CB11CC701B601A30192010E94D10CB2
:100F8000C901DA016C017D01C114D104E104F1044D
:100F9000F1F681E0E82EF12CEC0EFD1EE80CF91CB8
:100FA0003E010894611C711CD501C4010197A1097F
:100FB000B1096C01C818D90814C0F601EE0DFF1D67
:100FC00060816A3010F4605D01C0695CD101ED910F
:100FD000FC910190F081E02DC10109950894E10890
:100FE000F1086E147F0449F7A0960FB6F894DEBF9F
:100FF0000FBECDBFCF91DF911F910F91FF90EF906A
:10100000DF90CF90BF90AF909F908F907F906F9028
:101010005F904F903F902F9008952AE00E947507AF
:1010200008950F931F938C010E940D08C8010E9420
:1010300033071F910F910895AB0160E070E00E94AB
:101040000D0808950F931F938C01AB0160E070E0D1
:101050000E940D08C8010E9433071F910F91089547
:10106000EF92FF920F931F93CF93DF93EC017A01DE
:101070008B0177FF0FC0E881F9810190F081E02DAD
:101080006DE2099510950095F094E094E11CF11C37
:10109000011D111D2AE0B801A701CE010E947507AC
:1010A000DF91CF911F910F91FF90EF9008950F93D3
:1010B0001F938C010E943008C8010E9433071F91C2
:1010C0000F910895AB01662757FD6095762F0E941A
:1010D000300808950F931F938C01AB01662757FDCD
:1010E0006095762F0E943008C8010E9433071F9137
:1010F0000F910895DC012115310541F4ED91FC912A
:101100000190F081E02D642F099508952A30310572
:1011100019F40E94300808950E94750708950F93EE
:101120001F938C010E947A08C8010E9433071F9107
:101130000F9108951F920F920FB60F9211242F93C3
:101140008F939F93AF93BF9380910B0390910C0368
:10115000A0910D03B0910E038050904CAF4FBF4F44
:1011600080930B0390930C03A0930D03B0930E0395
:1011700027C080910B0390910C03A0910D03B091B7
:101180000E0380589E43A040B04080930B03909381
:101190000C03A0930D03B0930E0380910F03909165
:1011A0001003A0911103B09112030196A11DB11D6E
:1011B00080930F0390931003A0931103B093120335
:1011C00080910B0390910C03A0910D03B0910E033D
:1011D00081589E43A040B04060F6BF91AF919F916F
:1011E0008F912F910F900FBE0F901F9018958FB772
:1011F000F89420910F033091100340911103509106
:1012000012038FBFB901CA010895EF92FF920F93A5
:101210001F937B018C018FB7F89440910F0350917D
:10122000100360911103709112038FBF2FB7F894D0
:1012300080910F0390911003A0911103B0911203BC
:101240002FBF841B950BA60BB70B8E159F05A00710
:10125000B10760F31F910F91FF90EF9008950197F0
:1012600059F0FC01EE0FFF1FEE0FFF1F32978FB7F3
:10127000F8943197F1F78FBF0895789484B5826020
:1012800084BD84B5816084BD85B5826085BD85B52A
:10129000816085BDEEE6F0E0808181608083E1E8D9
:1012A000F0E0808182608083808181608083E0E8DB
:1012B000F0E0808181608083E1EBF0E080818460F8
:1012C0008083E0EBF0E0808181608083EAE7F0E0FA
:1012D000808184608083808182608083808181605E
:1012E00080838081806880831092C10008958093FC
:1012F000E50208958F709091E5029295990F990FEC
:10130000907C982B90937C0080917A0080648093ED
:101310007A0080917A0086FDFCCF20917800409180
:101320007900942F80E030E0282B392BC9010895F3
:101330001F93CF93DF93182FEB0161E00E94EC091C
:10134000E12FF0E0E156FF4F8491833051F480911A
:101350008000806880938000D0938900C0938800CB
:1013600037C0843051F48091800080628093800087
:10137000D0938B00C0938A002BC0813029F484B5B0
:10138000806884BDC7BD24C0823029F484B58062E2
:1013900084BDC8BD1DC0863041F48091B000806816
:1013A0008093B000C093B30013C0873041F48091A4
:1013B000B00080628093B000C093B40009C0C03810
:1013C000D10514F460E001C061E0812F0E940A0A97
:1013D000DF91CF911F910895282F30E0C9018557E3
:1013E0009F4FFC01949129583F4FF9018491882324
:1013F00081F0E82FF0E0E859FF4FE491F0E0662338
:1014000029F4808190958923808308958081892B98
:1014100080830895482F50E0CA0181569F4FFC01F8
:101420002491CA0185579F4FFC01949149585F4F01
:10143000FA0134913323C1F1222331F1233021F415
:10144000809180008F7705C0243031F48091800036
:101450008F7D8093800018C0213019F484B58F7778
:1014600004C0223021F484B58F7D84BD0DC02630A8
:1014700021F48091B0008F7705C0273029F4809146
:10148000B0008F7D8093B000E32FF0E0E359FF4F71
:10149000E491F0E0662329F480819095892380838C
:1014A00008958081892B80830895482F50E0CA01D8
:1014B00081569F4FFC012491CA0185579F4FFC0123
:1014C000949149585F4FFA013491332319F420E085
:1014D00030E035C0222331F1233021F480918000A7
:1014E0008F7705C0243031F4809180008F7D809308
:1014F000800018C0213019F484B58F7704C02230E1
:1015000021F484B58F7D84BD0DC0263021F48091F7
:10151000B0008F7705C0273029F48091B0008F7D0F
:101520008093B000E32FF0E0EE58FF4FE491F0E03D
:10153000808120E030E0892311F021E030E0C90112
:101540000895EF92FF920F931F937B018C0122E08D
:1015500030E040E050E00E94F30C205C3D4B404FF7
:101560005F4FCA01B901A80197010E94F30CC9019C
:10157000DA010197A109B109292F3A2F4B2F5527DD
:1015800047FD5A950196A11DB11D2093C5008150BC
:101590008093C400E1ECF0E08081806180838081F1
:1015A000886080838081806880831F910F91FF9085
:1015B000EF900895982F8091C00085FFFCCF909305
:1015C000C6000895809113039091140380589F4F93
:1015D0002091150330911603821B930B60E870E095
:1015E0000E94BE0C089540911503509116038091FE
:1015F0001303909114038417950719F42FEF3FEF0D
:101600000FC0FA01E95EFC4F2081CA01019660E833
:1016100070E00E94BE0C909316038093150330E097
:10162000C9010895809115039091160390931403B6
:101630008093130308951F920F920FB60F921124F7
:101640002F933F934F935F936F937F938F939F93CA
:10165000AF93BF93EF93FF934091C600E0911303C4
:10166000F0911403CF01019660E870E00E94BE0C77
:101670009C0180911503909116032817390739F0C2
:10168000E95EFC4F40833093140320931303FF91D2
:10169000EF91BF91AF919F918F917F916F915F91EA
:1016A0004F913F912F910F900FBE0F901F90189563
:1016B0002F923F924F925F926F927F928F929F9262
:1016C000AF92BF92CF92DF92EF92FF920F931F9350
:1016D000DF93CF93CDB7DEB73B014C0119012A014F
:1016E0006D897E898F89988D6A197B098C099D097E
:1016F000621A730A840A950AA40193010E949F0C3E
:10170000E218F30804091509A80197010E94F30CD7
:101710002A0D3B1D4C1D5D1DB901CA01CF91DF9102
:101720001F910F91FF90EF90DF90CF90BF90AF90FF
:101730009F908F907F906F905F904F903F902F90F1
:101740000895AF92BF92CF92DF92EF92FF920F93E4
:101750001F935B016C01611571058105910529F4E9
:1017600020E030E040E050E01FC00E94530C7C01BC
:101770000E94530C0027F7FC0095102F8701FF24CF
:10178000EE24AA2797FDA095BA2FE80EF91E0A1F8E
:101790001B1FC801B701A60195010E94F30CAC0103
:1017A000CB01DA019C01AD01B901CA011F910F9172
:1017B000FF90EF90DF90CF90BF90AF900895EF92A1
:1017C000FF920F931F937B018C01621773078407AD
:1017D000950764F4261B370B480B590BCA01B90156
:1017E0000E94A10BE60EF71E081F191FB701C801C2
:1017F0001F910F91FF90EF900895009711F00E94B4
:10180000580C0895A0E0B0E0E8E0FCE00C94300D46
:10181000EC01A880B980CA80DB80A114B104C104A6
:10182000D10441F484E2A82E89EDB82E8BE5C82EB0
:1018300087E0D82EC601B5012DE133EF41E050E03D
:101840000E94F30C27EA31E440E050E00E949F0C34
:101850007B018C01C601B5012DE133EF41E050E081
:101860000E94F30CCA01B9012CEE34EF4FEF5FEF89
:101870000E949F0C6E0D7F1D801F911F97FF04C05B
:101880006150704080409048688379838A839B834D
:101890009B013F77C901CDB7DEB7EAE00C944C0D50
:1018A0000E94020C089586EE92E00E94020C0895B8
:1018B000A0E0B0E08093E6029093E702A093E802F4
:1018C000B093E9020895FB01DC010D900020E9F7D7
:1018D000119701900D920020E1F70895FB019F01FF
:1018E000E8944230C4F04532B4F44A3029F497FB0E
:1018F0001EF4909581959F4F642F77270E940E0DBF
:10190000805D8A330CF0895D8193CB010097A1F74C
:1019100016F45DE251931082C9010C948F0CDC0126
:10192000FC01672F71917723E1F7329704C07C9116
:101930006D9370836291AE17BF07C8F30895629FDD
:10194000D001739FF001829FE00DF11D649FE00DB7
:10195000F11D929FF00D839FF00D749FF00D659F18
:10196000F00D9927729FB00DE11DF91F639FB00D17
:10197000E11DF91FBD01CF011124089597FB092E28
:1019800007260AD077FD04D049D006D000201AF4EB
:10199000709561957F4F0895F6F7909581959F4FCB
:1019A0000895A1E21A2EAA1BBB1BFD010DC0AA1FA0
:1019B000BB1FEE1FFF1FA217B307E407F50720F0B8
:1019C000A21BB30BE40BF50B661F771F881F991F33
:1019D0001A9469F760957095809590959B01AC017C
:1019E000BD01CF01089597FB092E05260ED057FDA6
:1019F00004D0D7DF0AD0001C38F4509540953095BC
:101A000021953F4F4F4F5F4F0895F6F79095809582
:101A1000709561957F4F8F4F9F4F0895AA1BBB1BF9
:101A200051E107C0AA1FBB1FA617B70710F0A61BDE
:101A3000B70B881F991F5A95A9F780959095BC01FF
:101A4000CD010895EE0FFF1F0590F491E02D09944C
:101A50002F923F924F925F926F927F928F929F92BE
:101A6000AF92BF92CF92DF92EF92FF920F931F93AC
:101A7000CF93DF93CDB7DEB7CA1BDB0B0FB6F8945D
:101A8000DEBF0FBECDBF09942A88398848885F849D
:101A90006E847D848C849B84AA84B984C884DF800E
:101AA000EE80FD800C811B81AA81B981CE0FD11DF2
:101AB0000FB6F894DEBF0FBECDBFED010895F894C8
:021AC000FFCF56
:101AC20000000000060100004000140054003C0029
:101AD20020003E0053706565643A002500202020F6
:101AE2002020202020202020202020202000547789
:101AF2006974746572204861726477617265627993
:101B0200204272756E6F20536F6172657300014ED1
:101B12006F206D657373616765732E0000000000AE
:101B220000000000000000000000000000000000B3
:101B320000000000000000000000000000000000A3
:101B42000000000000000000000000000000000093
:101B52000000000000000000000000000000000083
:101B62000000000000000000000000000000000073
:101B72000000000000000000000000000000000063
:101B82000000000000000000000000000000000053
:101B92000000000000000000000000000000000043
:101BA2000000000000000000000000000000000033
:101BB2000000000000000000000000000000000023
:101BC2000000000000000000000000000000000013
:101BD2000000000000000000000000000000000003
:101BE20000000000000000000000000000000000F3
:101BF20000000000000000000000000000000000E3
:101C020000000000000000000000000000000000D2
:101C120000000000000000000000000000000000C2
:101C220000000000000000000000000000000000B2
:101C320000000000000000000000000000000000A2
:101C42000000000000000000000000000000000092
:101C52000000000000000000000000000000000082
:101C62000000000000000000000000000000000072
:101C72000000000000000000000000000000000062
:101C82000000000000000000000000000000000052
:101C92000000000000000000000000000000000042
:0A1CA200000000F906010100000037
:00000001FF
